:0600000000F061EF00F0CA
:10000800FACF03F0FBCF04F0E9CF05F0EACF06F012
:10001800E1CF07F0E2CF08F0D9CF09F0DACF0AF044
:10002800F3CF0BF0F4CF0CF0F6CF0DF0F7CF0EF0C6
:10003800F8CF0FF0F5CF10F0F2A406D0610ED65E1F
:10004800F2944C4A4D2A00D04E504C1806E14F50BD
:100058004D18D8A402D08A8000D050504E24016E8A
:1000680051504F20026E4C5001180AE14D500218B1
:10007800D8A406D08A90000E4D6E000E4C6E00D0AB
:1000880010C0F5FF0FC0F8FF0EC0F7FF0DC0F6FF58
:100098000CC0F4FF0BC0F3FF0AC0DAFF09C0D9FF98
:1000A80008C0E2FF07C0E1FF06C0EAFF05C0E9FF9C
:1000B80004C0FBFF03C0FAFF110097EF04F041EC06
:1000C80004F07EEC04F0A2EC04F0AAEC04F0CA847C
:1000D80000D0000EFEEC03F011C048F012C049F049
:1000E800010EFEEC03F011C04AF012C04BF04A506A
:1000F800485C4B504958D8A07DD0495004E1C90EFE
:10010800485CD8A077D04B5004E1C90E4A5CD8A00F
:1001180071D056EC04F020EE4AF0DECF46F0DDCF89
:1001280047F0461E471E464A472A48504624526E04
:1001380049504720536E280E2B6E200E2C6E3C0E15
:100148002D6EDB0E1F6E130E206E470E216E52C0F1
:1001580019F053C01AF06BEC04F019C01CF01AC067
:100168001DF01BC01EF096EC01F01CC028F01DC04D
:1001780029F01EC02AF078EC02F028C037F029C018
:1001880038F02AC039F0F4EC02F037C04EF038C02D
:100198004FF0280E2B6E200E2C6EBC0E2D6ED00E3E
:1001A8001F6E3F0E206EC50E216E52C019F053C04F
:1001B8001AF06BEC04F019C01CF01AC01DF01BC03B
:1001C8001EF096EC01F01CC028F01DC029F01EC0DE
:1001D8002AF078EC02F028C037F029C038F02AC09D
:1001E80039F0F4EC02F037C050F038C051F0CAECE6
:1001F80003F090D04A50485C4B504958D8B07BD057
:10020800495004E1C90E485CD8A075D04B5004E1B0
:10021800C90E4A5CD8A06FD056EC04F048C046F02E
:1002280049C047F0461E471E464A472A4A504624B8
:10023800526E4B504720536E280E2B6E200E2C6E9C
:10024800BC0E2D6EDB0E1F6E130E206EC70E216EB8
:1002580052C019F053C01AF06BEC04F019C01CF02E
:100268001AC01DF01BC01EF096EC01F01CC028F04F
:100278001DC029F01EC02AF078EC02F028C037F023
:1002880029C038F02AC039F0F4EC02F037C04EF03B
:1002980038C04FF0280E2B6E200E2C6E3C0E2D6EA3
:1002A800D00E1F6E3F0E206E450E216E52C019F003
:1002B80053C01AF06BEC04F019C01CF01AC01DF002
:1002C8001BC01EF096EC01F01CC028F01DC029F0E0
:1002D8001EC02AF078EC02F028C037F029C038F0A8
:1002E8002AC039F0F4EC02F037C050F038C051F0B1
:1002F800CAEC03F00FD049500DE1C80E485CD8B0E5
:1003080009D04B5007E1C80E4A5CD8B003D02CEC9A
:1003180004F000D09E9200D09EB2DBD6FDD7D9D68D
:1003280061EF00F01EC022F0236A246A1D342236D1
:1003380001E323802250276E21C022F0236A246A19
:100348002034223601E323802250266E2750D8B469
:100358000BD02650275CD8B00ED027500008262492
:10036800226E180E226407D01FC01CF020C01DF09A
:1003780021C01EF0B8D02650D8B40BD02750265C28
:10038800D8B00ED0265000082724226E180E2264FA
:1003980007D01CC01CF01DC01DF01EC01EF0A3D04D
:1003A800060E256E1EAE02D0258E00D021BE258CED
:1003B8001D8EFF0E1C16FF0E1D16000E1E16208E1B
:1003C800FF0E1F16FF0E2016000E21162650275C62
:1003D800D8B01ED0D8901F36203621362606275092
:1003E8002618D8B40FD0250625C022F0070E2216ED
:1003F800D8B408D0EFD706D0D8901E321D321C32A0
:10040800272A00D026502718D8B424D0F5D722D0D0
:100418002750265CD8B01ED0D8901C361D361E3604
:10042800270627502618D8B40FD0250625C022F055
:10043800070E2216D8B408D0EFD706D0D8902132AC
:1004480020321F32262A00D026502718D8B402D0CE
:10045800F5D700D025AE0CD0FF0E1C1AFF0E1D1AC2
:10046800FF0E1E1A010E1C26000E1D22000E1E2253
:1004780025AC0DD0FF0E1F1AFF0E201AFF0E211AF1
:10048800010E1F26000E2022000E212200D0000E91
:10049800256E1C501F261D5020221E50212221AEE1
:1004A8000FD0FF0E1F1AFF0E201AFF0E211A010E81
:1004B8001F26000E2022000E2122010E256E00D0DC
:1004C8001FC011F020C012F021C013F027C014F093
:1004D80025C015F067EC03F011C01CF012C01DF028
:1004E80013C01EF000D012002AC02EF02F6A306A06
:1004F80029342E3601E32F802E50316E3150D8A486
:1005080002D00ED06CD02DC02EF02F6A306A2C3459
:100518002E3601E32F802E50366E3650D8A407D0E1
:10052800000E286E000E296E000E2A6E58D0365026
:100538007B0F31262AC036F02D50361A800E36161B
:10054800298E2C8EFF0E2B16FF0E2C16000E2D1644
:10055800000E326E000E336E000E346E070E356ECE
:1005680000D028A007D02B5032262C5033222D50F3
:10057800342200D0D8902A3229322832D8902B360B
:100588002C362D36352EEDD700D0090E356E00D01D
:1005980028A007D02B5032262C5033222D5034223D
:1005A80000D0D8902A3229322832D89034323332C7
:1005B8003232352EEDD700D032C011F033C012F0F0
:1005C80034C013F031C014F036C015F067EC03F0F6
:1005D80011C028F012C029F013C02AF000D0120070
:1005E80039C03BF03C6A3D6A38343B3601E33C8015
:1005F8003B50456E4550D8A402D039D063D0170E71
:100608003B6E37C03CF038C03DF039C03EF03B2867
:100618003F6E04D0D8903E323D323C323F2EFAD75E
:100628003C50406E388EFF0E3716FF0E3816000EFF
:1006380039163750416E3850426E3950436E446A0D
:100648008E0E455E45AE10D04550800A8F0FD8B04B
:1006580003D00DD037D000D0D89044324332423244
:100668004132453EF9D719D0170E456411D0000E16
:10067800376E000E386E000E396E000E3A6E22D0BC
:1006880007D0D8904136423643364436450600D026
:100698004550D8B402D0F5D700D04050D8B409D0CE
:1006A800441E431E421E416C000E42224322442235
:1006B80000D041C037F042C038F043C039F044C0E0
:1006C8003AF000D012001450D8B405D011501210CE
:1006D8001310D8A40ED0000E116E000E126E000E6C
:1006E800136E53D006D0142AD89013321232113216
:1006F80000D0000E1114166E000E1214176EFE0EA6
:100708001314186E165017101810D8B40ED0EBD753
:100718000CD0142A010E1126000E1222000E1322EC
:10072800D89013321232113200D0000E1114166E06
:10073800000E1214176EFF0E1314186E16501710B1
:100748001810D8B408D0E5D706D01406D8901136BA
:100758001236133600D012BE04D0020E1460F5D73C
:1007680000D014B002D0129E00D0D8901432145089
:1007780013121550D8B402D0138E00D011C011F046
:1007880012C012F013C013F000D01200535006E14B
:10079800C90E525CD8B002D0C80E29D0535004E11B
:1007A800C90E525CD8A008D0910E525C010E535865
:1007B800D8B002D0960E1BD0910E525C010E535841
:1007C800D8A008D0590E525C020E5358D8B002D0A7
:1007D800640E0DD0590E525C020E5358D8A009D0A1
:1007E8004D0E525C040E5358D8B003D0320EBE6E74
:1007F80000D01200176E09D0C294C296C2980CD0CD
:10080800C250E30B0409C26E07D01750000AD8B4CF
:10081800F3D7010AD8B4F4D7C28200D0C2B2FED747
:10082800C3CF13F0060E146ED8901332142EFCD7D3
:100838001350C4CF15F0166AD89015361636D890CE
:10084800153616361510116E1650126E00D012009D
:1008580054045510D8A408D0000EBE6E3F0EBD1625
:100868000A0E8BEC04F000D0000E556E000E546E8C
:10087800C00EBD123E0EBE6E12007E0ED36E3F0E2F
:10088800C216C292C294C296C298C2807C0EC16E31
:10089800C09EC050C70B2009C06EC050F80B050998
:1008A800C06E120054505510D8A410D0000EBE6E61
:1008B8003F0EBD160A0E8BEC04F0BD503F0B4009ED
:1008C800BD6E000E556E010E546E00D0120019C098
:1008D80011F01AC012F0136A8E0E146E000E156E07
:1008E80067EC03F011C019F012C01AF013C01BF026
:1008F80000D01200000ED76E000ED66EF28AF28E6D
:10090800F28CF294D598D586D58CD59A1200126EB1
:100918000D0E116EFC0EE82EFED7112EFCD7122EEE
:10092800F7D700D0120000EE48F00E0EEE6AE80687
:10093800FDE1000EF86E000163EF00F09396939CC2
:100948009394939E93909280928212004C0EBD6E67
:0A095800000ECA6EC70ECB6E12002F
:020000040020DA
:08000000FFFFFFFFFFFFFFFF00
:020000040030CA
:0E000000FF080D1EFF0080FF03C003E0034059
:00000001FF
